:100000000C9434000C9446000C9446000C9446006A
:100010000C9446000C9446000C9446000C94460048
:100020000C9446000C9446000C9446000C94460038
:100030000C9446000C9446000C946D000C94460001
:100040000C9446000C9446000C9446000C94460018
:100050000C9446000C9446000C9446000C94460008
:100060000C9446000C94460011241FBECFEFD8E03C
:10007000DEBFCDBF21E0A0E0B1E001C01D92AD31F7
:10008000B207E1F70E9405010C940A010C940000EC
:1000900082E084BD85E085BD8EE487BDEEE6F0E0BC
:1000A000808182608083089521E030E0A90102C050
:1000B000440F551F8A95E2F7CA0120911001309133
:1000C0001001942F9095932390931001822308950B
:1000D000809110011092100108951F921FB61F9277
:1000E00011242F933F938F939F93EF93FF9320912E
:1000F0001201209311019091180186B1E92FF0E0CF
:10010000ED5EFE4F80839F5F9093180180911301F5
:10011000309114018323309115018323309116010E
:100120008323309117018323809312018091120160
:100130003091100180958223832B8093100195309C
:1001400010F010921801FF91EF919F918F913F91C4
:100150002F911F901FBE1F901895E62FF0E0EE0F15
:10016000FF1FE050FF4F918380830895E0910001CD
:10017000F0910101309721F08091100180FD0CC0B9
:1001800080911001882329F0E0910201F091030190
:1001900009951092100108950995F2CFE1E8F0E079
:1001A000808195E08927808308958BB194E0892729
:1001B0008BB90895089585B190E2892785B908958E
:1001C000789482E8809380008DE18093810080E3C1
:1001D00090E090938700809386008AE090E090936F
:1001E00089008093880084E08AB98BB982E284B95F
:1001F00017B80E94480060E08EEC90E00E94AD00CD
:1002000061E085ED90E00C94AD000E94E0000E945A
:08021000B600FDCFF894FFCF0A
:00000001FF
