:100000000C9434000C9446000C9446000C9446006A
:100010000C9446000C9446000C9446000C94460048
:100020000C9446000C9446000C9446000C94BC02C0
:100030000C9446000C9446000C946D000C94460001
:100040000C9446000C9446000C9446000C94460018
:100050000C9446000C9446000C9446000C94460008
:100060000C9446000C94460011241FBECFEFD8E03C
:10007000DEBFCDBF21E0A0E0B1E001C01D92A534FC
:10008000B207E1F70E9451030C94DC050C940000C8
:1000900082E084BD85E085BD8CE987BDEEE6F0E0B9
:1000A000808182608083089521E030E0A90102C050
:1000B000440F551F8A95E2F7CA0120913201309111
:1000C0003201942F909593239093320182230895C7
:1000D000809132011092320108951F921FB61F9233
:1000E00011242F933F934F938F939F93EF93FF93FD
:1000F000409134014093330130913A0183B1E32FB1
:10010000F0E0EB5CFE4F80833F5F30933A01E5E324
:10011000F1E02FEF9FEF819198238095282381E0D4
:10012000EA33F807C1F7909334012093300190939C
:100130003101809134019091320180958423892B83
:1001400080933201353010F010923A01FF91EF9117
:100150009F918F914F913F912F911F901FBE1F90A4
:100160001895E62FF0E0EE0FFF1FE05EFE4F918343
:1001700080830895E62FF0E0EE0FFF1FE050FF4F61
:10018000918380830895E62FF0E0EE0FFF1FE05F7C
:10019000FE4F918380830895BF92CF92DF92EF92BA
:1001A000FF920F931F93CF93DF9380E2C82E81E0DD
:1001B000D82E90E1E92E91E0F92E00E011E0D0E098
:1001C000C0E0BC2ED601ED91FD916D01309759F044
:1001D0008091320190E00C2E02C0959587950A948B
:1001E000E2F780FD0995D801ED91FD918D013097E1
:1001F00059F08091310190E00B2C02C095958795C4
:100200000A94E2F780FD0995D701ED91FD917D01FA
:10021000309751F08091300190E002C0959587951C
:10022000BA94E2F780FD09952196C830D10549F6C8
:1002300010923201DF91CF911F910F91FF90EF90BB
:10024000DF90CF90BF900895809143019091440139
:10025000029701F1109285001092840080E390E0F3
:10026000909387008093860080918600909187000C
:1002700096958795909389008093880082E090E01E
:10028000909344018093430144988091810085605C
:100290008093810008958F929F92AF92BF92CF92E8
:1002A000DF92EF92FF920F931F93CF93DF9300D0D3
:1002B00000D000D0CDB7DEB760913F017091400112
:1002C00080914101909142010E9486042CEA35EC14
:1002D00047E256E369837A838B839C8369817A81C1
:1002E0008B819C810E9414058B018E839D83CB01A1
:1002F000AE81BD8180933B0190933C01A0933D0171
:10030000B0933E019801AD0109831A83AB83BC838E
:1003100069817A818B819C810E9414056B017C012B
:100320009B01AC0160E070E082EE96E40E947803ED
:1003300069837A838B839C8369817A818B819C8199
:100340000E9487054B015C0120E030E040EA52E466
:1003500009831A838E818B838D818C8369817A8155
:100360008B819C810E9414059401A50169837A8385
:100370008B839C8369817A818B819C810E94E503B8
:100380009B01AC0160E070E088E493E40E94780394
:100390008B018E839D8320E030E040E850E4698348
:1003A0001A838B839C8369817A818B819C810E94D3
:1003B000140598014E815D8169837A838B839C83C8
:1003C00069817A818B819C810E9414059B01AC011B
:1003D000C982DA82EB82FC8269817A818B819C817D
:1003E0000E94E5039B01AC0160E070E080E89FE3C0
:1003F0000E9478036B017C0122E039E549EE51E46B
:1004000009831A838E818B838D818C8369817A81A4
:100410008B819C810E9414059B01AC01C982DA8208
:10042000EB82FC8269817A818B819C810E94140518
:100430009B01AC0160E074E284E796E40E94E5036E
:1004400069837A838B839C8369817A818B819C8188
:100450000E945704462F572FE6E8F0E0518340836F
:1004600080819181969587959093890080938800EB
:1004700026960FB6F894DEBF0FBECDBFDF91CF91A9
:100480001F910F91FF90EF90DF90CF90BF90AF90B2
:100490009F908F900895809143019091440101971E
:1004A00009F4089510928500109284000E944B0177
:1004B00081E090E09093440180934301449A8091BD
:1004C00081008560809381000895E1E8F0E08081FB
:1004D00095E0892780830895E1E8F0E080818560D8
:1004E00080830895E1E8F0E080818A7F8083089529
:1004F0001092440110924301E1E8F0E080818A7F8C
:100500008083089588B190E1892788B9089585B1DD
:1005100090E2892785B90895892B11F4449A0895AA
:1005200044980895109244011092430110923F01A3
:10053000109240011092410110924201789482E899
:100540008093800088E180938100EFE6F0E0808175
:100550008260808380E187B9219A259A24982C981B
:100560000E94480064E08BE492E00E94BA0064E0DC
:1005700084E291E00C94C3001F920F920FB60F9289
:100580001124CF92DF92EF92FF922F933F934F93DC
:100590005F936F937F938F939F93AF93BF93EF93EB
:1005A000FF93CF93DF9300D000D0CDB7DEB780911B
:1005B00043019091440181309105A9F10297D9F04E
:1005C0000F900F900F900F90DF91CF91FF91EF91CF
:1005D000BF91AF919F918F917F916F915F914F915B
:1005E0003F912F91FF90EF90DF90CF900F900FBE33
:1005F0000F901F90189580913F0190914001A0911C
:100600004101B09142010097A105B105D9F00197D0
:10061000A109B10980933F0190934001A09341014A
:10062000B0934201CDCFC0903F01D0904001E09007
:100630004101F090420180E1C81687E2D806E1044A
:10064000F10450F010924401109243018091810016
:100650008A7F80938100B4CFC701B60124E630E0E1
:1006600040E050E00E945603672B682B692B71F025
:100670009FEFC91AD90AE90AF90AC0923F01D0923C
:100680004001E0924101F09242019ACF0E944B0159
:10069000C0903F01D0904001E0904101F0904201B4
:1006A000E7CF0E9492020E94CC00FDCFA1E21A2E59
:1006B000AA1BBB1BFD010DC0AA1FBB1FEE1FFF1F06
:1006C000A217B307E407F50720F0A21BB30BE40B56
:1006D000F50B661F771F881F991F1A9469F760959D
:1006E0007095809590959B01AC01BD01CF01089557
:1006F0005058BB27AA270E9490030C94DA040E944A
:10070000CC0438F00E94D30420F039F49F3F19F450
:1007100026F40C94C9040EF4E095E7FB0C94C30492
:10072000E92F0E94EB0458F3BA1762077307840796
:10073000950720F079F4A6F50C940D050EF4E095DC
:100740000B2EBA2FA02D0B01B90190010C01CA018B
:10075000A0011124FF27591B99F0593F50F4503E36
:1007600068F11A16F040A22F232F342F4427585F28
:10077000F3CF469537952795A795F0405395C9F740
:100780007EF41F16BA0B620B730B840BBAF09150F8
:10079000A1F0FF0FBB1F661F771F881FC2F70EC097
:1007A000BA0F621F731F841F48F48795779567956A
:1007B000B795F7959E3F08F0B0CF9395880F08F056
:1007C0009927EE0F9795879508950E94F9030C9449
:1007D000DA040E94D30458F00E94CC0440F029F4BB
:1007E0005F3F29F00C94C30451110C940E050C9436
:1007F000C9040E94EB0468F39923B1F3552391F3E4
:10080000951B550BBB27AA2762177307840738F07F
:100810009F5F5F4F220F331F441FAA1FA9F335D0DC
:100820000E2E3AF0E0E832D091505040E695001C90
:10083000CAF72BD0FE2F29D0660F771F881FBB1F4A
:10084000261737074807AB07B0E809F0BB0B802D28
:10085000BF01FF2793585F4F3AF09E3F510578F054
:100860000C94C3040C940E055F3FE4F3983ED4F35C
:10087000869577956795B795F7959F5FC9F7880F28
:10088000911D9695879597F90895E1E0660F771F7A
:10089000881FBB1F621773078407BA0720F0621B0B
:1008A000730B840BBA0BEE1F88F7E09508950E9436
:1008B000F30488F09F5798F0B92F9927B751B0F0FB
:1008C000E1F0660F771F881F991F1AF0BA95C9F7D4
:1008D00014C0B13091F00E940D05B1E008950C9460
:1008E0000D05672F782F8827B85F39F0B93FCCF313
:1008F000869577956795B395D9F73EF49095809551
:10090000709561957F4F8F4F9F4F0895E89409C070
:1009100097FB3EF490958095709561957F4F8F4F32
:100920009F4F9923A9F0F92F96E9BB279395F69548
:10093000879577956795B795F111F8CFFAF4BB0FC6
:1009400011F460FF1BC06F5F7F4F8F4F9F4F16C02A
:10095000882311F096E911C0772321F09EE8872FB4
:10096000762F05C0662371F096E8862F70E060E070
:100970002AF09A95660F771F881FDAF7880F9695E9
:10098000879597F9089597F99F6780E870E060E090
:1009900008959FEF80EC089500240A941616170618
:1009A00018060906089500240A9412161306140660
:1009B00005060895092E0394000C11F4882352F0C3
:1009C000BB0F40F4BF2B11F460FF04C06F5F7F4F7B
:1009D0008F4F9F4F089557FD9058440F551F59F062
:1009E0005F3F71F04795880F97FB991F61F09F3F1C
:1009F00079F087950895121613061406551FF2CF45
:100A00004695F1DF08C0161617061806991FF1CF94
:100A100086957105610508940895E894BB276627BB
:100A20007727CB0197F908950E9427050C94DA04E3
:100A30000E94CC0438F00E94D30420F0952311F0DA
:100A40000C94C3040C94C90411240C940E050E9448
:100A5000EB0470F3959FC1F3950F50E0551F629F13
:100A6000F001729FBB27F00DB11D639FAA27F00D07
:100A7000B11DAA1F649F6627B00DA11D661F829F2E
:100A80002227B00DA11D621F739FB00DA11D621F13
:100A9000839FA00D611D221F749F3327A00D611D30
:100AA000231F849F600D211D822F762F6A2F112412
:100AB0009F5750409AF0F1F088234AF0EE0FFF1F45
:100AC000BB1F661F771F881F91505040A9F79E3F9C
:100AD000510580F00C94C3040C940E055F3FE4F3C1
:100AE000983ED4F3869577956795B795F795E795F2
:100AF0009F5FC1F7FE2B880F911D9695879597F9FB
:100B0000089519F416F40C94C9040C94C7050E94B6
:100B1000F304B8F39923C9F3B6F39F57550B87FF36
:100B20000E94D5050024A0E640EA90018058569521
:100B3000979528F4805C660F771F881F20F0261792
:100B40003707480730F4621B730B840B20293129C7
:100B50004A2BA69517940794202531254A2758F744
:100B6000660F771F881F20F026173707480730F4D5
:100B7000620B730B840B200D311D411DA09581F775
:100B8000B901842F9158880F9695879508959F3FB6
:100B900031F0915020F4879577956795B795880F38
:100BA000911D9695879597F9089591505040660F3D
:0C0BB000771F881FD2F70895F894FFCF3C
:00000001FF
